:0A05FB003F065B4F666D7D077F6FC2
:10058500011800021400370216003B0219000D0283
:1005950021003B0223003B02250017011B00011C23
:0E05A50000011D00011E00011F0002270000C2
:0705CA0093F5807F647E00C1
:0B05D100EF1FAC0670011E4C70F622FC
:0405EC007F0A7E0004
:0B05F000EF1FAC0670011E4C70F622DD
:1004FC0030B105E51BB4011FE4F51B7F0AFE1205A4
:10050C00F030B1FD0518E518B40403751801C2A943
:10051C00E520B40102D2A930B305E51EB40115E4FF
:10052C00F51EF51F7F0AFE1205F030B3FDE4F51839
:05053C00D2A9F5202208
:1000260030B009E51C6401600302010DE4F51CE52E
:100036002064016006E51F64017043E51824FE6034
:1000460019146028240270771205ECA2B0B340FBA5
:100056000522E5227069052180651205ECA2B0B380
:1000660040FB0524E5247002052380531205ECA20B
:10007600B0B340FB0526E526704505258041E51809
:1000860024FE6019146028240270341205ECA2B014
:10009600B340FB0515E5157026051480221205EC04
:1000A600A2B0B340FB0517E51770140516801012B1
:1000B60005ECA2B0B340FB051AE51A70020519E576
:1000C6001A641845197004F519F51AE517643C45C4
:1000D600167004F516F517E515643C45147004F51D
:1000E60014F515E526641845257004F525F526E56D
:1000F60024643C45237004F523F524E522643C453D
:10010600217004F521F52230B209E51D6401600372
:1001160002020CE4F51DE52064016006E51F64019A
:100126007043E51824FE60191460282402707712C3
:1001360005ECE522152270021521A2B2B3506780A4
:10014600F91205ECE524152470021523A2B2B3506A
:100156005580F91205ECE526152670021525A2B282
:10016600B3504380F9E51824FE6019146028240270
:1001760070341205ECE515151570021514A2B2B30C
:10018600502480F91205ECE517151770021516A212
:10019600B2B3501280F91205ECE51A151A70021561
:1001A60019A2B2B340FBE51AB4FF0BE519B4FF067A
:1001B600751900751A17E517B4FF0BE516B4FF0697
:1001C60075160075173BE515B4FF0BE514B4FF066D
:1001D60075140075153BE526B4FF0BE525B4FF063F
:1001E600752500752617E524B4FF0BE523B4FF0635
:1001F60075230075243BE522B4FF0BE521B4FF0609
:0702060075210075223B2267
:10042300E4F52975900FE590640F60777FE87E030C
:100433001205D1E590640F606A75900FAF90EF24B9
:10044300F5601024FE601114601324077012E4F5A4
:1004530020800D752001800875200280037520031C
:100463007590F0AF90EF2450601124E0601124F0F8
:10047300601124707013852020800E74048006742C
:10048300088002740C2520F520C3E529648094B20A
:100493005011E59064F0600B7FE87E031205D105EF
:0304A3002980E6C7
:0104A6002233
:0802D5008E298F2A8D828C8393
:1002DD007C007D0A1204A78E088F09AE29AF2A7CF7
:1002ED00007D0A1204A78C0A8D0B7C007D0AAF825B
:1002FD00AE831204A78E0C8F0DAE83AF827C007D72
:10030D000A1204A78C0E8D0F7C007D0AAF03AE027E
:10031D001204A78E108F11AE02AF037C007D0A125E
:10032D0004A78C128D13D2A2D2A3D2A4E5119005ED
:10033D00FB1205CAC2A2D2A3D2A4E5131205CAD2DA
:10034D00A2C2A3D2A47580401205CDC2A2C2A3D26F
:10035D00A4E50D1205CAD2A2D2A3C2A4E50F1205BF
:10036D00CAC2A2D2A3C2A47580401205CDD2A2C228
:10037D00A3C2A4E5091205CAC2A2C2A3C2A4E50B79
:0A038D0093F5807F647E000205D125
:1005B400759850758920758780758DF3758BF3D286
:0605C400ACD2AFD28E2282
:1005DC00438901758C3C758AB0D2A9D2AFD28C22DA
:10020D001205B41205DC1204231200261204FCC3DD
:10021D00E5289414E52764809480403BE4F527F5A8
:10022D00280515E51570020514643C45147028F574
:10023D0014F5150517E51770020516643C45167083
:10024D0016F516F517051AE51A7002051964184505
:10025D00197004F519F51AE52064016005E51FB460
:10026D00010EAB26AA25AD24AC23AF22AE21800C06
:10027D00AB1AAA19AD17AC16AF15AE141202D5E50F
:10028D001565227004E51465216003020213E5175C
:10029D0065247004E51665236003020213E51A65F3
:1002AD00267004E51965256003020213D295E52237
:1002BD002403FFE43521FED3E5159FE5149E50037D
:0802CD00020213C295020213A4
:03000B0002000EE2
:10000E00C0E0758C3C758AB00528E528700205277E
:03001E00D0E032FD
:0300230002054192
:09054100C0E0C0D075D000C00775
:10054A00AF99C2988F993099FDC299EF24CE601263
:10055A0014601414601614601824047017751B01B3
:10056A008012751C01800D751D018008751E0180A1
:04057A0003751F01E5
:07057E00D007D0D0D0E0321D
:0300000002039761
:0C039700787FE4F6D8FD75812A0203DEB1
:1004A700BC000BBE0029EF8DF084FFADF022E4CC39
:1004B700F875F008EF2FFFEE33FEEC33FCEE9DEC02
:1004C700984005FCEE9DFE0FD5F0E9E4CEFD22ED48
:1004D700F8F5F0EE8420D21CFEADF075F008EF2F92
:1004E700FFED33FD4007985006D5F0F222C398FD83
:0504F7000FD5F0EA2220
:1003A30002020DE493A3F8E493A34003F68001F261
:1003B30008DFF48029E493A3F85407240CC8C3335B
:1003C300C4540F4420C8834004F456800146F6DF2A
:1003D300E4800B0102040810204080900585E47E30
:1003E300019360BCA3FF543F30E509541FFEE4931F
:1003F300A360010ECF54C025E060A840B8E493A3E6
:10040300FAE493A3F8E493A3C8C582C8CAC583CA10
:10041300F0A3C8C582C8CAC583CADFE9DEE780BEC8
:0105B3000047
:00000001FF
